{
  "contractName": "Voting",
  "abi": [
    {
      "constant": true,
      "inputs": [
        {
          "name": "",
          "type": "bytes32"
        }
      ],
      "name": "votesReceived",
      "outputs": [
        {
          "name": "",
          "type": "uint8"
        }
      ],
      "payable": false,
      "stateMutability": "view",
      "type": "function"
    },
    {
      "constant": true,
      "inputs": [
        {
          "name": "",
          "type": "uint256"
        }
      ],
      "name": "candidateList",
      "outputs": [
        {
          "name": "",
          "type": "bytes32"
        }
      ],
      "payable": false,
      "stateMutability": "view",
      "type": "function"
    },
    {
      "inputs": [
        {
          "name": "candidateNames",
          "type": "bytes32[]"
        }
      ],
      "payable": false,
      "stateMutability": "nonpayable",
      "type": "constructor"
    },
    {
      "constant": false,
      "inputs": [],
      "name": "Clist",
      "outputs": [
        {
          "name": "",
          "type": "bytes32[]"
        }
      ],
      "payable": false,
      "stateMutability": "nonpayable",
      "type": "function"
    },
    {
      "constant": false,
      "inputs": [
        {
          "name": "candidate",
          "type": "bytes32"
        }
      ],
      "name": "totalVotesFor",
      "outputs": [
        {
          "name": "",
          "type": "uint8"
        }
      ],
      "payable": false,
      "stateMutability": "nonpayable",
      "type": "function"
    },
    {
      "constant": false,
      "inputs": [
        {
          "name": "candidate",
          "type": "bytes32"
        }
      ],
      "name": "voteForCandidate",
      "outputs": [],
      "payable": false,
      "stateMutability": "nonpayable",
      "type": "function"
    },
    {
      "constant": false,
      "inputs": [
        {
          "name": "candidate",
          "type": "bytes32"
        }
      ],
      "name": "validCandidate",
      "outputs": [
        {
          "name": "",
          "type": "bool"
        }
      ],
      "payable": false,
      "stateMutability": "nonpayable",
      "type": "function"
    }
  ],
  "bytecode": "0x6060604052341561000f57600080fd5b6040516104d03803806104d0833981016040528080518201919050508060019080519060200190610041929190610048565b50506100c0565b82805482825590600052602060002090810192821561008a579160200282015b82811115610089578251829060001916905591602001919060010190610068565b5b509050610097919061009b565b5090565b6100bd91905b808211156100b95760008160009055506001016100a1565b5090565b90565b610401806100cf6000396000f300606060405260043610610078576000357c0100000000000000000000000000000000000000000000000000000000900463ffffffff1680632f265cf71461007d578063392e6678146100be5780637021939f146100fd57806372bf67ea1461013e578063b13c744b146101a8578063cc9ab267146101e7575b600080fd5b341561008857600080fd5b6100a260048080356000191690602001909190505061020e565b604051808260ff1660ff16815260200191505060405180910390f35b34156100c957600080fd5b6100e3600480803560001916906020019091905050610258565b604051808215151515815260200191505060405180910390f35b341561010857600080fd5b6101226004808035600019169060200190919050506102b8565b604051808260ff1660ff16815260200191505060405180910390f35b341561014957600080fd5b6101516102d8565b6040518080602001828103825283818151815260200191508051906020019060200280838360005b83811015610194578082015181840152602081019050610179565b505050509050019250505060405180910390f35b34156101b357600080fd5b6101c9600480803590602001909190505061033a565b60405180826000191660001916815260200191505060405180910390f35b34156101f257600080fd5b61020c60048080356000191690602001909190505061035e565b005b600080151561021c83610258565b1515141561022957600080fd5b600080836000191660001916815260200190815260200160002060009054906101000a900460ff169050919050565b600080600090505b6001805490508110156102ad57826000191660018281548110151561028157fe5b9060005260206000209001546000191614156102a057600191506102b2565b8080600101915050610260565b600091505b50919050565b60006020528060005260406000206000915054906101000a900460ff1681565b6102e06103c1565b600180548060200260200160405190810160405280929190818152602001828054801561033057602002820191906000526020600020905b81546000191681526020019060010190808311610318575b5050505050905090565b60018181548110151561034957fe5b90600052602060002090016000915090505481565b6000151561036b82610258565b1515141561037857600080fd5b6001600080836000191660001916815260200190815260200160002060008282829054906101000a900460ff160192506101000a81548160ff021916908360ff16021790555050565b6020604051908101604052806000815250905600a165627a7a7230582025a629d6e52dfba5d9c2a99b4a9014885a06cfec7278cc17eb76919a31ebf2d40029",
  "source": "// Compiler version to be used\n\npragma solidity ^0.4.11;\n\n  /* Voting is contract name\n  */\ncontract Voting {\n\n    /* Mapping is used as associative array or hash. votesReceived uses bytes32 as key and unsigned 8 bit integer as value\n  in other words it mapes candidate name to the number of votes it has received\n  */\n  mapping (bytes32 => uint8) public votesReceived;\n\n  \n  \n  \n   /* Solidity doesn't let you pass in an array of strings in the constructor (yet).\n  We will use an array of bytes32 instead to store the list of candidates\n  */\n\n  bytes32[] public candidateList;\n \n /* The constructor function that is executed only when the contract is deployed. This \nfunction gets attached to the transaction that deployes the contract\n  */\n  \n  function Voting(bytes32[] candidateNames) {\n    candidateList = candidateNames;\n  }\n\nfunction Clist() returns(bytes32[]){\n return candidateList;\n}\n\n\n\n\n  // This function returns the total votes a candidate has received so far. It is a constant function(Deson't change any value or state)\n  function totalVotesFor(bytes32 candidate) returns (uint8) {\n    if (validCandidate(candidate) == false) throw;\n    return votesReceived[candidate];\n  }\n\n  // This function increments the vote count for the specified candidate. This\n  // is equivalent to casting a vote\n  function voteForCandidate(bytes32 candidate) {\n    if (validCandidate(candidate) == false) throw;\n    votesReceived[candidate] += 1;\n  }\n\n//This function checks if the candidate is valid. In other words if the candidate is in the list that we initialized in contstructor function\n  function validCandidate(bytes32 candidate) returns (bool) {\n    for(uint i = 0; i < candidateList.length; i++) {\n      if (candidateList[i] == candidate) {\n        return true;\n      }\n    }\n    return false;\n  }\n}\n\n",
  "sourcePath": "/home/mussadiq/voting/contracts/Voting.sol",
  "compiler": {
    "name": "solc",
    "version": "0.4.21+commit.dfe3193c.Emscripten.clang"
  },
  "schemaVersion": "2.0.0",
  "updatedAt": "2018-04-20T00:08:55.551Z"
}